{
    "contractName": "PrescriptionToken",
    "abi": [
        {
            "inputs": [],
            "stateMutability": "nonpayable",
            "type": "constructor"
        },
        {
            "anonymous": false,
            "inputs": [
                {
                    "indexed": true,
                    "internalType": "address",
                    "name": "_from",
                    "type": "address"
                },
                {
                    "indexed": true,
                    "internalType": "address",
                    "name": "_to",
                    "type": "address"
                },
                {
                    "indexed": true,
                    "internalType": "uint256",
                    "name": "_tokenId",
                    "type": "uint256"
                }
            ],
            "name": "Transfer",
            "type": "event"
        },
        {
            "inputs": [
                {
                    "internalType": "uint256",
                    "name": "_tokenId",
                    "type": "uint256"
                }
            ],
            "name": "affiliateOf",
            "outputs": [
                {
                    "internalType": "address",
                    "name": "",
                    "type": "address"
                },
                {
                    "internalType": "address",
                    "name": "",
                    "type": "address"
                },
                {
                    "internalType": "address",
                    "name": "",
                    "type": "address"
                },
                {
                    "internalType": "address",
                    "name": "",
                    "type": "address"
                }
            ],
            "stateMutability": "view",
            "type": "function"
        },
        {
            "inputs": [
                {
                    "internalType": "address",
                    "name": "_owner",
                    "type": "address"
                }
            ],
            "name": "balanceOf",
            "outputs": [
                {
                    "internalType": "uint256[]",
                    "name": "",
                    "type": "uint256[]"
                }
            ],
            "stateMutability": "view",
            "type": "function"
        },
        {
            "inputs": [
                {
                    "internalType": "uint256",
                    "name": "_tokenId",
                    "type": "uint256"
                }
            ],
            "name": "drugdataOf",
            "outputs": [
                {
                    "internalType": "string",
                    "name": "drugName",
                    "type": "string"
                },
                {
                    "internalType": "string",
                    "name": "drugForm",
                    "type": "string"
                },
                {
                    "internalType": "string",
                    "name": "drugQuantity",
                    "type": "string"
                }
            ],
            "stateMutability": "view",
            "type": "function"
        },
        {
            "inputs": [
                {
                    "internalType": "address",
                    "name": "_from",
                    "type": "address"
                },
                {
                    "internalType": "address",
                    "name": "_to",
                    "type": "address"
                },
                {
                    "internalType": "uint256",
                    "name": "_tokenId",
                    "type": "uint256"
                },
                {
                    "internalType": "string",
                    "name": "_drugName",
                    "type": "string"
                },
                {
                    "internalType": "string",
                    "name": "_drugForm",
                    "type": "string"
                },
                {
                    "internalType": "string",
                    "name": "_drugQuantity",
                    "type": "string"
                },
                {
                    "internalType": "string",
                    "name": "_prescriptionColor",
                    "type": "string"
                }
            ],
            "name": "mint",
            "outputs": [],
            "stateMutability": "nonpayable",
            "type": "function"
        },
        {
            "inputs": [
                {
                    "internalType": "uint256",
                    "name": "_tokenId",
                    "type": "uint256"
                }
            ],
            "name": "ownerOf",
            "outputs": [
                {
                    "internalType": "address",
                    "name": "",
                    "type": "address"
                }
            ],
            "stateMutability": "view",
            "type": "function"
        },
        {
            "inputs": [
                {
                    "internalType": "uint256",
                    "name": "_tokenId",
                    "type": "uint256"
                }
            ],
            "name": "prescriptiondataOf",
            "outputs": [
                {
                    "internalType": "uint256",
                    "name": "prescriptionDate",
                    "type": "uint256"
                },
                {
                    "internalType": "string",
                    "name": "prescriptionColor",
                    "type": "string"
                }
            ],
            "stateMutability": "view",
            "type": "function"
        },
        {
            "inputs": [
                {
                    "internalType": "uint256",
                    "name": "_tokenId",
                    "type": "uint256"
                }
            ],
            "name": "terminate",
            "outputs": [
                {
                    "internalType": "bool",
                    "name": "",
                    "type": "bool"
                }
            ],
            "stateMutability": "nonpayable",
            "type": "function"
        },
        {
            "inputs": [
                {
                    "internalType": "address",
                    "name": "_from",
                    "type": "address"
                },
                {
                    "internalType": "address",
                    "name": "_to",
                    "type": "address"
                },
                {
                    "internalType": "uint256",
                    "name": "_tokenId",
                    "type": "uint256"
                }
            ],
            "name": "transferFrom",
            "outputs": [],
            "stateMutability": "payable",
            "type": "function"
        },
        {
            "inputs": [
                {
                    "internalType": "address",
                    "name": "_user",
                    "type": "address"
                }
            ],
            "name": "verifyHealthInsuranceCompany",
            "outputs": [
                {
                    "internalType": "bool",
                    "name": "",
                    "type": "bool"
                }
            ],
            "stateMutability": "nonpayable",
            "type": "function"
        },
        {
            "inputs": [
                {
                    "internalType": "address",
                    "name": "_user",
                    "type": "address"
                }
            ],
            "name": "verifyPharmacy",
            "outputs": [
                {
                    "internalType": "bool",
                    "name": "",
                    "type": "bool"
                }
            ],
            "stateMutability": "nonpayable",
            "type": "function"
        },
        {
            "inputs": [
                {
                    "internalType": "address",
                    "name": "_user",
                    "type": "address"
                }
            ],
            "name": "verifyPhysician",
            "outputs": [
                {
                    "internalType": "bool",
                    "name": "",
                    "type": "bool"
                }
            ],
            "stateMutability": "nonpayable",
            "type": "function"
        }
    ],
    "bytecode": "608060405234801561001057600080fd5b50600080546001600160a01b031916331790556113df806100326000396000f3fe60806040526004361061009c5760003560e01c806370a082311161006457806370a08231146101735780637a828b28146101a1578063c855333c146101bc578063cbd92fbc1461020f578063f9a5ac4d1461022f578063fb3623ae1461025d57600080fd5b80630ee60c57146100a157806323b872dd146100d65780633540aad1146100eb57806339c3c7be1461010b5780636352211e1461013a575b600080fd5b3480156100ad57600080fd5b506100c16100bc36600461111e565b61027d565b60405190151581526020015b60405180910390f35b6100e96100e436600461113f565b6102c5565b005b3480156100f757600080fd5b506100c161010636600461111e565b61040c565b34801561011757600080fd5b5061012b61012636600461124d565b61044f565b6040516100cd939291906112f4565b34801561014657600080fd5b5061015b61015536600461124d565b50600090565b6040516001600160a01b0390911681526020016100cd565b34801561017f57600080fd5b5061019461018e36600461111e565b50606090565b6040516100cd91906112b0565b3480156101ad57600080fd5b506100c161015536600461124d565b3480156101c857600080fd5b506101dc6101d736600461124d565b61073c565b604080516001600160a01b03958616815293851660208501529184169183019190915290911660608201526080016100cd565b34801561021b57600080fd5b506100e961022a36600461117a565b610a28565b34801561023b57600080fd5b5061024f61024a36600461124d565b610cc4565b6040516100cd929190611337565b34801561026957600080fd5b506100c161027836600461111e565b610fa4565b600080546001600160a01b0316331461029557600080fd5b6001600160a01b0382166000908152600360205260409020805460ff19166001179055506001919050565b919050565b600081815260016020819052604090912001546001600160a01b031633146102ec57600080fd5b6001600160a01b03831660009081526002602052604090205460ff16801561033157506001600160a01b03821660009081526004602052604090205460ff1615156001145b1561037957600081815260016020819052604090912090810180546001600160a01b0385166001600160a01b0319918216811790925560049092018054909216179055505050565b6001600160a01b03831660009081526004602052604090205460ff16151560011480156103c357506001600160a01b03821660009081526005602052604090205460ff1615156001145b1561040757600081815260016020819052604090912090810180546001600160a01b0385166001600160a01b03199182168117909255600590920180549092161790555b505050565b600080546001600160a01b0316331461042457600080fd5b6001600160a01b0382166000908152600460205260409020805460ff19166001179055506001919050565b600081815260016020818152604080842081516101608101835281548152938101546001600160a01b0390811693850193909352600281015483169184019190915260038101548216606084810191909152600482015483166080850152600582015490921660a084015260068101805492948594859491939092909160c0840191906104db90611358565b80601f016020809104026020016040519081016040528092919081815260200182805461050790611358565b80156105545780601f1061052957610100808354040283529160200191610554565b820191906000526020600020905b81548152906001019060200180831161053757829003601f168201915b5050505050815260200160078201805461056d90611358565b80601f016020809104026020016040519081016040528092919081815260200182805461059990611358565b80156105e65780601f106105bb576101008083540402835291602001916105e6565b820191906000526020600020905b8154815290600101906020018083116105c957829003601f168201915b505050505081526020016008820180546105ff90611358565b80601f016020809104026020016040519081016040528092919081815260200182805461062b90611358565b80156106785780601f1061064d57610100808354040283529160200191610678565b820191906000526020600020905b81548152906001019060200180831161065b57829003601f168201915b5050505050815260200160098201548152602001600a8201805461069b90611358565b80601f01602080910402602001604051908101604052809291908181526020018280546106c790611358565b80156107145780601f106106e957610100808354040283529160200191610714565b820191906000526020600020905b8154815290600101906020018083116106f757829003601f168201915b5050509190925250505060c081015160e0820151610100909201519097919650945092505050565b600081815260016020818152604080842081516101608101835281548152938101546001600160a01b03908116938501939093526002810154831691840191909152600381015482166060840152600481015482166080840152600581015490911660a0830152600681018054849384938493849360c0840191906107c090611358565b80601f01602080910402602001604051908101604052809291908181526020018280546107ec90611358565b80156108395780601f1061080e57610100808354040283529160200191610839565b820191906000526020600020905b81548152906001019060200180831161081c57829003601f168201915b5050505050815260200160078201805461085290611358565b80601f016020809104026020016040519081016040528092919081815260200182805461087e90611358565b80156108cb5780601f106108a0576101008083540402835291602001916108cb565b820191906000526020600020905b8154815290600101906020018083116108ae57829003601f168201915b505050505081526020016008820180546108e490611358565b80601f016020809104026020016040519081016040528092919081815260200182805461091090611358565b801561095d5780601f106109325761010080835404028352916020019161095d565b820191906000526020600020905b81548152906001019060200180831161094057829003601f168201915b5050505050815260200160098201548152602001600a8201805461098090611358565b80601f01602080910402602001604051908101604052809291908181526020018280546109ac90611358565b80156109f95780601f106109ce576101008083540402835291602001916109f9565b820191906000526020600020905b8154815290600101906020018083116109dc57829003601f168201915b50505050508152505090508060400151816060015182608001518360a001519450945094509450509193509193565b6001600160a01b03871660009081526003602052604090205460ff161515600114610a5257600080fd5b6001600160a01b03861660009081526002602052604090205460ff161515600114610a7c57600080fd5b600085815260016020526040902054610a9457600080fd5b604080516101608101825260008082526001600160a01b0389811660208085018281528d8416968601968752606086019283526080860185815260a0870186815260c088018d815260e089018d905261010089018c9052426101208a015261014089018b90528780526001855288517fa6eef7e35abe7026729641147f7915573c7e97b47efa546f5f6e3230263bcb4990815593517fa6eef7e35abe7026729641147f7915573c7e97b47efa546f5f6e3230263bcb4a80546001600160a01b0319908116928a1692909217905599517fa6eef7e35abe7026729641147f7915573c7e97b47efa546f5f6e3230263bcb4b80548c1691891691909117905594517fa6eef7e35abe7026729641147f7915573c7e97b47efa546f5f6e3230263bcb4c80548b1691881691909117905590517fa6eef7e35abe7026729641147f7915573c7e97b47efa546f5f6e3230263bcb4d80548a16918716919091179055517fa6eef7e35abe7026729641147f7915573c7e97b47efa546f5f6e3230263bcb4e805490981694169390931790955551805192948493610c55927fa6eef7e35abe7026729641147f7915573c7e97b47efa546f5f6e3230263bcb4f920190610fe7565b5060e08201518051610c71916007840191602090910190610fe7565b506101008201518051610c8e916008840191602090910190610fe7565b5061012082015160098201556101408201518051610cb691600a840191602090910190610fe7565b505050505050505050505050565b600081815260016020818152604080842081516101608101835281548152938101546001600160a01b0390811693850193909352600281015483169184019190915260038101548216606084810191909152600482015483166080850152600582015490921660a08401526006810180549293859390929160c0840191610d4a90611358565b80601f0160208091040260200160405190810160405280929190818152602001828054610d7690611358565b8015610dc35780601f10610d9857610100808354040283529160200191610dc3565b820191906000526020600020905b815481529060010190602001808311610da657829003601f168201915b50505050508152602001600782018054610ddc90611358565b80601f0160208091040260200160405190810160405280929190818152602001828054610e0890611358565b8015610e555780601f10610e2a57610100808354040283529160200191610e55565b820191906000526020600020905b815481529060010190602001808311610e3857829003601f168201915b50505050508152602001600882018054610e6e90611358565b80601f0160208091040260200160405190810160405280929190818152602001828054610e9a90611358565b8015610ee75780601f10610ebc57610100808354040283529160200191610ee7565b820191906000526020600020905b815481529060010190602001808311610eca57829003601f168201915b5050505050815260200160098201548152602001600a82018054610f0a90611358565b80601f0160208091040260200160405190810160405280929190818152602001828054610f3690611358565b8015610f835780601f10610f5857610100808354040283529160200191610f83565b820191906000526020600020905b815481529060010190602001808311610f6657829003601f168201915b50505050508152505090508061012001518161014001519250925050915091565b600080546001600160a01b03163314610fbc57600080fd5b6001600160a01b0382166000908152600560205260409020805460ff19166001179055506001919050565b828054610ff390611358565b90600052602060002090601f016020900481019282611015576000855561105b565b82601f1061102e57805160ff191683800117855561105b565b8280016001018555821561105b579182015b8281111561105b578251825591602001919060010190611040565b5061106792915061106b565b5090565b5b80821115611067576000815560010161106c565b80356001600160a01b03811681146102c057600080fd5b600082601f8301126110a7578081fd5b813567ffffffffffffffff808211156110c2576110c2611393565b604051601f8301601f19908116603f011681019082821181831017156110ea576110ea611393565b81604052838152866020858801011115611102578485fd5b8360208701602083013792830160200193909352509392505050565b60006020828403121561112f578081fd5b61113882611080565b9392505050565b600080600060608486031215611153578182fd5b61115c84611080565b925061116a60208501611080565b9150604084013590509250925092565b600080600080600080600060e0888a031215611194578283fd5b61119d88611080565b96506111ab60208901611080565b955060408801359450606088013567ffffffffffffffff808211156111ce578485fd5b6111da8b838c01611097565b955060808a01359150808211156111ef578485fd5b6111fb8b838c01611097565b945060a08a0135915080821115611210578384fd5b61121c8b838c01611097565b935060c08a0135915080821115611231578283fd5b5061123e8a828b01611097565b91505092959891949750929550565b60006020828403121561125e578081fd5b5035919050565b60008151808452815b8181101561128a5760208185018101518683018201520161126e565b8181111561129b5782602083870101525b50601f01601f19169290920160200192915050565b6020808252825182820181905260009190848201906040850190845b818110156112e8578351835292840192918401916001016112cc565b50909695505050505050565b6060815260006113076060830186611265565b82810360208401526113198186611265565b9050828103604084015261132d8185611265565b9695505050505050565b8281526040602082015260006113506040830184611265565b949350505050565b600181811c9082168061136c57607f821691505b6020821081141561138d57634e487b7160e01b600052602260045260246000fd5b50919050565b634e487b7160e01b600052604160045260246000fdfea2646970667358221220ff1443c6bb9dee759c40504af3b707bf80ae2670dd43d72fbc489ab28448e17164736f6c63430008040033",
    "sourcePath": "e:/Programmieren/Blockchain/Etherium/blockchainRecipe/contracts/Prescription.sol",
    "compiler": {
        "name": "solc",
        "version": "0.8.4+commit.c7e474f2"
    },
    "functionHashes": {
        "affiliateOf(uint256)": "c855333c",
        "balanceOf(address)": "70a08231",
        "drugdataOf(uint256)": "39c3c7be",
        "mint(address,address,uint256,string,string,string,string)": "cbd92fbc",
        "ownerOf(uint256)": "6352211e",
        "prescriptiondataOf(uint256)": "f9a5ac4d",
        "terminate(uint256)": "7a828b28",
        "transferFrom(address,address,uint256)": "23b872dd",
        "verifyHealthInsuranceCompany(address)": "fb3623ae",
        "verifyPharmacy(address)": "3540aad1",
        "verifyPhysician(address)": "0ee60c57"
    },
    "gasEstimates": {
        "creation": {
            "codeDepositCost": "1017400",
            "executionCost": "21889",
            "totalCost": "1039289"
        },
        "external": {
            "affiliateOf(uint256)": "infinite",
            "balanceOf(address)": "infinite",
            "drugdataOf(uint256)": "infinite",
            "mint(address,address,uint256,string,string,string,string)": "infinite",
            "ownerOf(uint256)": "384",
            "prescriptiondataOf(uint256)": "infinite",
            "terminate(uint256)": "291",
            "transferFrom(address,address,uint256)": "infinite",
            "verifyHealthInsuranceCompany(address)": "22231",
            "verifyPharmacy(address)": "22166",
            "verifyPhysician(address)": "22122"
        }
    }
}